{
  "contractName": "Contest",
  "abi": [
    {
      "inputs": [],
      "payable": false,
      "stateMutability": "nonpayable",
      "type": "constructor"
    },
    {
      "constant": true,
      "inputs": [
        {
          "internalType": "uint256",
          "name": "",
          "type": "uint256"
        }
      ],
      "name": "contestants",
      "outputs": [
        {
          "internalType": "uint256",
          "name": "id",
          "type": "uint256"
        },
        {
          "internalType": "string",
          "name": "name",
          "type": "string"
        },
        {
          "internalType": "uint256",
          "name": "voteCount",
          "type": "uint256"
        },
        {
          "internalType": "string",
          "name": "party",
          "type": "string"
        },
        {
          "internalType": "uint256",
          "name": "age",
          "type": "uint256"
        },
        {
          "internalType": "string",
          "name": "qualification",
          "type": "string"
        }
      ],
      "payable": false,
      "stateMutability": "view",
      "type": "function"
    },
    {
      "constant": true,
      "inputs": [],
      "name": "contestantsCount",
      "outputs": [
        {
          "internalType": "uint256",
          "name": "",
          "type": "uint256"
        }
      ],
      "payable": false,
      "stateMutability": "view",
      "type": "function"
    },
    {
      "constant": true,
      "inputs": [],
      "name": "state",
      "outputs": [
        {
          "internalType": "enum Contest.PHASE",
          "name": "",
          "type": "uint8"
        }
      ],
      "payable": false,
      "stateMutability": "view",
      "type": "function"
    },
    {
      "constant": true,
      "inputs": [
        {
          "internalType": "address",
          "name": "",
          "type": "address"
        }
      ],
      "name": "voters",
      "outputs": [
        {
          "internalType": "bool",
          "name": "hasVoted",
          "type": "bool"
        },
        {
          "internalType": "uint256",
          "name": "vote",
          "type": "uint256"
        },
        {
          "internalType": "bool",
          "name": "isRegistered",
          "type": "bool"
        }
      ],
      "payable": false,
      "stateMutability": "view",
      "type": "function"
    },
    {
      "constant": false,
      "inputs": [
        {
          "internalType": "enum Contest.PHASE",
          "name": "x",
          "type": "uint8"
        }
      ],
      "name": "changeState",
      "outputs": [],
      "payable": false,
      "stateMutability": "nonpayable",
      "type": "function"
    },
    {
      "constant": false,
      "inputs": [
        {
          "internalType": "string",
          "name": "_name",
          "type": "string"
        },
        {
          "internalType": "string",
          "name": "_party",
          "type": "string"
        },
        {
          "internalType": "uint256",
          "name": "_age",
          "type": "uint256"
        },
        {
          "internalType": "string",
          "name": "_qualification",
          "type": "string"
        }
      ],
      "name": "addContestant",
      "outputs": [],
      "payable": false,
      "stateMutability": "nonpayable",
      "type": "function"
    },
    {
      "constant": false,
      "inputs": [
        {
          "internalType": "address",
          "name": "user",
          "type": "address"
        }
      ],
      "name": "voterRegisteration",
      "outputs": [],
      "payable": false,
      "stateMutability": "nonpayable",
      "type": "function"
    },
    {
      "constant": false,
      "inputs": [
        {
          "internalType": "uint256",
          "name": "_contestantId",
          "type": "uint256"
        }
      ],
      "name": "vote",
      "outputs": [],
      "payable": false,
      "stateMutability": "nonpayable",
      "type": "function"
    }
  ],
  "bytecode": "0x60806040523480156200001157600080fd5b50336000806101000a81548173ffffffffffffffffffffffffffffffffffffffff021916908373ffffffffffffffffffffffffffffffffffffffff1602179055506000600460006101000a81548160ff021916908360028111156200007257fe5b02179055506200012b6040518060400160405280600c81526020017f436f6e74657374616e74203100000000000000000000000000000000000000008152506040518060400160405280600781526020017f5061727479203100000000000000000000000000000000000000000000000000815250601e6040518060400160405280600e81526020017f5175616c696669636174696f6e31000000000000000000000000000000000000815250620001e560201b60201c565b620001df6040518060400160405280600c81526020017f436f6e74657374616e74203200000000000000000000000000000000000000008152506040518060400160405280600781526020017f506172747920320000000000000000000000000000000000000000000000000081525060196040518060400160405280600e81526020017f5175616c696669636174696f6e32000000000000000000000000000000000000815250620001e560201b60201c565b620004d2565b6000809054906101000a900473ffffffffffffffffffffffffffffffffffffffff1673ffffffffffffffffffffffffffffffffffffffff163373ffffffffffffffffffffffffffffffffffffffff1614620002a8576040517f08c379a00000000000000000000000000000000000000000000000000000000081526004018080602001828103825260188152602001807f4f6e6c792061646d696e2063616e2063616c6c2074686973000000000000000081525060200191505060405180910390fd5b6000806002811115620002b757fe5b600460009054906101000a900460ff166002811115620002d357fe5b1462000347576040517f08c379a00000000000000000000000000000000000000000000000000000000081526004018080602001828103825260208152602001807f496e76616c696420737461746520666f722074686973206f7065726174696f6e81525060200191505060405180910390fd5b6003600081548092919060010191905055506040518060c0016040528060035481526020018681526020016000815260200185815260200184815260200183815250600160006003548152602001908152602001600020600082015181600001556020820151816001019080519060200190620003c692919062000423565b50604082015181600201556060820151816003019080519060200190620003ef92919062000423565b506080820151816004015560a08201518160050190805190602001906200041892919062000423565b509050505050505050565b828054600181600116156101000203166002900490600052602060002090601f016020900481019282601f106200046657805160ff191683800117855562000497565b8280016001018555821562000497579182015b828111156200049657825182559160200191906001019062000479565b5b509050620004a69190620004aa565b5090565b620004cf91905b80821115620004cb576000816000905550600101620004b1565b5090565b90565b61118e80620004e26000396000f3fe608060405234801561001057600080fd5b50600436106100885760003560e01c8063c19d93fb1161005b578063c19d93fb1461019e578063dfd50f52146101ca578063ec63d1c81461035e578063ef3281861461037c57610088565b80630121b93f1461008d578063268f1153146100bb578063698ceb5f146100ec578063a3ec138d14610130575b600080fd5b6100b9600480360360208110156100a357600080fd5b810190808035906020019092919050505061056f565b005b6100ea600480360360208110156100d157600080fd5b81019080803560ff1690602001909291905050506108e0565b005b61012e6004803603602081101561010257600080fd5b81019080803573ffffffffffffffffffffffffffffffffffffffff169060200190929190505050610a62565b005b6101726004803603602081101561014657600080fd5b81019080803573ffffffffffffffffffffffffffffffffffffffff169060200190929190505050610c1f565b604051808415151515815260200183815260200182151515158152602001935050505060405180910390f35b6101a6610c63565b604051808260028111156101b657fe5b60ff16815260200191505060405180910390f35b6101f6600480360360208110156101e057600080fd5b8101908080359060200190929190505050610c76565b60405180878152602001806020018681526020018060200185815260200180602001848103845289818151815260200191508051906020019080838360005b83811015610250578082015181840152602081019050610235565b50505050905090810190601f16801561027d5780820380516001836020036101000a031916815260200191505b50848103835287818151815260200191508051906020019080838360005b838110156102b657808201518184015260208101905061029b565b50505050905090810190601f1680156102e35780820380516001836020036101000a031916815260200191505b50848103825285818151815260200191508051906020019080838360005b8381101561031c578082015181840152602081019050610301565b50505050905090810190601f1680156103495780820380516001836020036101000a031916815260200191505b50995050505050505050505060405180910390f35b610366610e7a565b6040518082815260200191505060405180910390f35b61056d6004803603608081101561039257600080fd5b81019080803590602001906401000000008111156103af57600080fd5b8201836020820111156103c157600080fd5b803590602001918460018302840111640100000000831117156103e357600080fd5b91908080601f016020809104026020016040519081016040528093929190818152602001838380828437600081840152601f19601f8201169050808301925050505050505091929192908035906020019064010000000081111561044657600080fd5b82018360208201111561045857600080fd5b8035906020019184600183028401116401000000008311171561047a57600080fd5b91908080601f016020809104026020016040519081016040528093929190818152602001838380828437600081840152601f19601f82011690508083019250505050505050919291929080359060200190929190803590602001906401000000008111156104e757600080fd5b8201836020820111156104f957600080fd5b8035906020019184600183028401116401000000008311171561051b57600080fd5b91908080601f016020809104026020016040519081016040528093929190818152602001838380828437600081840152601f19601f820116905080830192505050505050509192919290505050610e80565b005b600180600281111561057d57fe5b600460009054906101000a900460ff16600281111561059857fe5b1461060b576040517f08c379a00000000000000000000000000000000000000000000000000000000081526004018080602001828103825260208152602001807f496e76616c696420737461746520666f722074686973206f7065726174696f6e81525060200191505060405180910390fd5b600260003373ffffffffffffffffffffffffffffffffffffffff1673ffffffffffffffffffffffffffffffffffffffff16815260200190815260200160002060020160009054906101000a900460ff166106cd576040517f08c379a00000000000000000000000000000000000000000000000000000000081526004018080602001828103825260148152602001807f566f746572206e6f74207265676973746572656400000000000000000000000081525060200191505060405180910390fd5b600260003373ffffffffffffffffffffffffffffffffffffffff1673ffffffffffffffffffffffffffffffffffffffff16815260200190815260200160002060000160009054906101000a900460ff1615610790576040517f08c379a00000000000000000000000000000000000000000000000000000000081526004018080602001828103825260178152602001807f566f7465722068617320616c726561647920766f74656400000000000000000081525060200191505060405180910390fd5b6000821180156107a257506003548211155b610814576040517f08c379a00000000000000000000000000000000000000000000000000000000081526004018080602001828103825260158152602001807f496e76616c696420636f6e74657374616e74204944000000000000000000000081525060200191505060405180910390fd5b60016000838152602001908152602001600020600201600081548092919060010191905055506001600260003373ffffffffffffffffffffffffffffffffffffffff1673ffffffffffffffffffffffffffffffffffffffff16815260200190815260200160002060000160006101000a81548160ff02191690831515021790555081600260003373ffffffffffffffffffffffffffffffffffffffff1673ffffffffffffffffffffffffffffffffffffffff168152602001908152602001600020600101819055505050565b6000809054906101000a900473ffffffffffffffffffffffffffffffffffffffff1673ffffffffffffffffffffffffffffffffffffffff163373ffffffffffffffffffffffffffffffffffffffff16146109a2576040517f08c379a00000000000000000000000000000000000000000000000000000000081526004018080602001828103825260188152602001807f4f6e6c792061646d696e2063616e2063616c6c2074686973000000000000000081525060200191505060405180910390fd5b600460009054906101000a900460ff1660028111156109bd57fe5b8160028111156109c957fe5b11610a3c576040517f08c379a000000000000000000000000000000000000000000000000000000000815260040180806020018281038252601b8152602001807f53746174652063616e206f6e6c79206d6f766520666f7277617264000000000081525060200191505060405180910390fd5b80600460006101000a81548160ff02191690836002811115610a5a57fe5b021790555050565b6000809054906101000a900473ffffffffffffffffffffffffffffffffffffffff1673ffffffffffffffffffffffffffffffffffffffff163373ffffffffffffffffffffffffffffffffffffffff1614610b24576040517f08c379a00000000000000000000000000000000000000000000000000000000081526004018080602001828103825260188152602001807f4f6e6c792061646d696e2063616e2063616c6c2074686973000000000000000081525060200191505060405180910390fd5b6000806002811115610b3257fe5b600460009054906101000a900460ff166002811115610b4d57fe5b14610bc0576040517f08c379a00000000000000000000000000000000000000000000000000000000081526004018080602001828103825260208152602001807f496e76616c696420737461746520666f722074686973206f7065726174696f6e81525060200191505060405180910390fd5b6001600260008473ffffffffffffffffffffffffffffffffffffffff1673ffffffffffffffffffffffffffffffffffffffff16815260200190815260200160002060020160006101000a81548160ff0219169083151502179055505050565b60026020528060005260406000206000915090508060000160009054906101000a900460ff16908060010154908060020160009054906101000a900460ff16905083565b600460009054906101000a900460ff1681565b6001602052806000526040600020600091509050806000015490806001018054600181600116156101000203166002900480601f016020809104026020016040519081016040528092919081815260200182805460018160011615610100020316600290048015610d285780601f10610cfd57610100808354040283529160200191610d28565b820191906000526020600020905b815481529060010190602001808311610d0b57829003601f168201915b505050505090806002015490806003018054600181600116156101000203166002900480601f016020809104026020016040519081016040528092919081815260200182805460018160011615610100020316600290048015610dcc5780601f10610da157610100808354040283529160200191610dcc565b820191906000526020600020905b815481529060010190602001808311610daf57829003601f168201915b505050505090806004015490806005018054600181600116156101000203166002900480601f016020809104026020016040519081016040528092919081815260200182805460018160011615610100020316600290048015610e705780601f10610e4557610100808354040283529160200191610e70565b820191906000526020600020905b815481529060010190602001808311610e5357829003601f168201915b5050505050905086565b60035481565b6000809054906101000a900473ffffffffffffffffffffffffffffffffffffffff1673ffffffffffffffffffffffffffffffffffffffff163373ffffffffffffffffffffffffffffffffffffffff1614610f42576040517f08c379a00000000000000000000000000000000000000000000000000000000081526004018080602001828103825260188152602001807f4f6e6c792061646d696e2063616e2063616c6c2074686973000000000000000081525060200191505060405180910390fd5b6000806002811115610f5057fe5b600460009054906101000a900460ff166002811115610f6b57fe5b14610fde576040517f08c379a00000000000000000000000000000000000000000000000000000000081526004018080602001828103825260208152602001807f496e76616c696420737461746520666f722074686973206f7065726174696f6e81525060200191505060405180910390fd5b6003600081548092919060010191905055506040518060c001604052806003548152602001868152602001600081526020018581526020018481526020018381525060016000600354815260200190815260200160002060008201518160000155602082015181600101908051906020019061105b9291906110b4565b506040820151816002015560608201518160030190805190602001906110829291906110b4565b506080820151816004015560a08201518160050190805190602001906110a99291906110b4565b509050505050505050565b828054600181600116156101000203166002900490600052602060002090601f016020900481019282601f106110f557805160ff1916838001178555611123565b82800160010185558215611123579182015b82811115611122578251825591602001919060010190611107565b5b5090506111309190611134565b5090565b61115691905b8082111561115257600081600090555060010161113a565b5090565b9056fea265627a7a7231582098d2de511fc06e51f4283262760eab2b79a12ac034588f1d674a5099daba7ff064736f6c63430005100032",
  "source": "pragma solidity 0.5.16;\r\n\r\ncontract Contest{\r\n\t\r\n\tstruct Contestant{\r\n\t\tuint id;\r\n\t\tstring name;\r\n\t\tuint voteCount;\r\n\t\tstring party;\r\n\t\tuint age;\r\n\t\tstring qualification;\r\n\t}\r\n\r\n\tstruct Voter{\r\n\t\tbool hasVoted;\r\n\t\tuint vote;\r\n\t\tbool isRegistered;\r\n\t}\r\n\r\n\taddress admin;\r\n\tmapping(uint => Contestant) public contestants; \r\n\tmapping(address => Voter) public voters;\r\n\tuint public contestantsCount;\r\n\tenum PHASE { reg, voting, done }\r\n\tPHASE public state;\r\n\r\n\tmodifier onlyAdmin(){\r\n\t\trequire(msg.sender == admin, \"Only admin can call this\");\r\n\t\t_;\r\n\t}\r\n\t\r\n\tmodifier validState(PHASE x){\r\n\t    require(state == x, \"Invalid state for this operation\");\r\n\t    _;\r\n\t}\r\n\r\n\tconstructor() public{\r\n\t\tadmin = msg.sender;\r\n        state = PHASE.reg;\r\n        // Default contestants add kar rahe hain:\r\n        addContestant(\"Contestant 1\", \"Party 1\", 30, \"Qualification1\");\r\n        addContestant(\"Contestant 2\", \"Party 2\", 25, \"Qualification2\");\r\n\t}\r\n\r\n    function changeState(PHASE x) public onlyAdmin {\r\n\t\trequire(x > state, \"State can only move forward\");\r\n        state = x;\r\n    }\r\n\r\n\tfunction addContestant(string memory _name, string memory _party, uint _age, string memory _qualification) \r\n\t    public onlyAdmin validState(PHASE.reg) \r\n\t{\r\n\t\tcontestantsCount++;\r\n\t\tcontestants[contestantsCount] = Contestant(contestantsCount, _name, 0, _party, _age, _qualification);\r\n\t}\r\n\r\n\tfunction voterRegisteration(address user) public onlyAdmin validState(PHASE.reg){\r\n\t\tvoters[user].isRegistered = true;\r\n\t}\r\n\r\n\tfunction vote(uint _contestantId) public validState(PHASE.voting){\r\n\t\trequire(voters[msg.sender].isRegistered, \"Voter not registered\");\r\n\t\trequire(!voters[msg.sender].hasVoted, \"Voter has already voted\");\r\n        require(_contestantId > 0 && _contestantId <= contestantsCount, \"Invalid contestant ID\");\r\n\t\t\r\n\t\tcontestants[_contestantId].voteCount++;\r\n\t\tvoters[msg.sender].hasVoted = true;\r\n\t\tvoters[msg.sender].vote = _contestantId;\r\n\r\n\t}\r\n\t\r\n}\r\n",
  "sourcePath": "/Users/arunsunhare/Desktop/MERN /mega_project/contest/contracts/Contest.sol",
  "compiler": {
    "name": "solc",
    "version": "0.5.16+commit.9c3226ce.Emscripten.clang"
  },
  "schemaVersion": "3.4.16",
  "updatedAt": "2025-03-31T17:51:20.359Z",
  "networkType": "ethereum",
  "devdoc": {
    "methods": {}
  },
  "userdoc": {
    "methods": {}
  }
}